:020000040800F2
:100000000000012095010008CF38000827EF000804
:10001000CF380008CF380008CF38000800000000B3
:10002000000000000000000000000000CF380008C1
:10003000CF38000800000000CF380008CF38000893
:10004000CF380008CF380008CF380008CF38000874
:10005000CF380008CF380008838000086F80000880
:100060005B8000084780000833800008618D00082D
:100070004D8D0008398D0008258D0008118D000870
:10008000FD8C0008E98C0008CF3800080000000053
:100090000000000000000000000000001F800008B9
:1000A000CF380008CF380008CF380008CF38000814
:1000B000197C0008CF380008CF380008CF38000876
:1000C000CF380008CF380008CF380008CF380008F4
:1000D000CF380008CF380008CF38000800000000F3
:1000E000DD7E0008CF380008CF380008000000008F
:1000F000000000000000000000000000D58C000897
:1001000000000000CF380008CF380008CF380008C2
:1001100000000000000000000000000000000000DF
:10012000C18C0008AD8C0008998C0008858C0008F3
:10013000718C0008000000000000000000000000BA
:10014000000000000000000000000000CF380008A0
:100150005D8C0008498C0008358C0008CF380008F9
:10016000CF380008CF380008000000000000000071
:10017000000000000000000000000000000000007F
:1001800000000000CF380008000000000000000060
:04019000CF3800085C
:1001940003F09DFB084809490022814201D004C0B4
:1001A400FBE707480749084A814202D008CA08C049
:1001B400FAE701F014F900DE7000002008120020B4
:1001C4000000002070000020E80D010880B56F4693
:1001D40082B0019000F0C9F800F00F0002B080BDB9
:1001E40080B56F4682B0019000F0BFF8C0B200093C
:1001F40002B080BD80B56F4682B00190FFF7F0FF7A
:10020400C0B20EF029FC02B080BD80B56F4646F244
:100214000000C4F202000022114609F05DFA80BD1C
:1002240080B56F4646F20000C4F202000122114676
:1002340009F052FA80BD80B56F4646F20000C4F260
:1002440002000222114609F047FA80BD80B56F46CC
:1002540046F20000C4F202000322114609F03CFAFF
:1002640080BD80B56F4646F20000C4F2020004224D
:10027400114609F031FA80BD80B56F4646F20000A0
:10028400C4F202000522114609F026FA80BD80B5A9
:100294006F4646F20000C4F202000622114609F03D
:1002A4001BFA80BD80B56F4646F20000C4F202001E
:1002B4000722114609F010FA80BD80B56F4646F258
:1002C4000040C4F202000021082209F005FA80BDB2
:1002D40080B56F4646F20040C4F2020001210922B3
:1002E40009F0FAF980BD80B56F4646F20040C4F2C9
:1002F400020002210A2209F0EFF980BD80B56F46A1
:1003040046F20040C4F2020003210B2209F0E4F992
:1003140080BD80B56F4646F20040C4F2020004215D
:100324000C2209F0D9F980BD80B56F4646F2004031
:10033400C4F2020005210D2209F0CEF980BD80B57A
:100344006F4646F20040C4F2020006210E2209F074
:10035400C3F980BD80B56F4646F20040C4F2020086
:1003640007210F2209F0B8F980BD81B00090052063
:1003740001B0704783B04EF65070C0F60000029092
:100384004FF0804001900090009803B0704780B512
:100394006F46BCB043F60000C4F2020003900C9018
:1003A4003A9040203B9043F64000C4F20200229071
:1003B40021902198089008A8019017901A90089805
:1003C40027902890006829902998159015A81690D0
:1003D400169808F095F8019A0398159918921991AE
:1003E400089A3492359111600E9036902020049032
:1003F400379043F62000C4F2020005902490239025
:100404002398099009A802901190149009982D90AE
:100414002E9000682F902F980F900FA8109010988E
:1004240008F07BF8DDF808C0039A049905980F9B3F
:10043400CDF848C01393DDF824C0CDF8C8C0339379
:10044400CCF800300D923892399126902590259859
:100454000A900AA806901D9020900A982A902B9042
:1004640000682C902C981B901BA81C901C9808F0DA
:1004740061F806991B981E911F900A99309131904A
:1004840008603CB080BD80B56F46BCB043F6000048
:10049400C4F2020003900C903A9044203B9043F63F
:1004A4004400C4F20200229021902198089008A8E8
:1004B40001901D902090089827902890006829901A
:1004C40029981B901BA81C901C9808F040F8019ACE
:1004D40003981B991E921F91089A349235911160CA
:1004E4000E90369024200490379043F62400C4F2F2
:1004F40002000590249023902398099009A8029063
:100504001190149009982D902E9000682F902F9898
:100514000F900FA81090109808F026F8DDF808C086
:10052400039A049905980F9BCDF848C01393DDF8FE
:1005340024C0CDF8C8C03393CCF800300D92389263
:1005440039912690259025980A900AA8069017902C
:100554001A900A982A902B9000682C902C98159049
:1005640015A81690169808F00CF806991598189185
:1005740019900A993091319008603CB080BD80B5E3
:100584006F4607F064FC806A80BD80B56F46BCB0DE
:1005940043F60000C4F2020003900C903A9040200D
:1005A4003B9043F64000C4F202002290219021982F
:1005B400089008A8019017901A90089827902890FE
:1005C400006829902998159015A81690169807F098
:1005D400E5FF019A0398159918921991089A349293
:1005E400359111600E90369020200490379043F698
:1005F4002000C4F2020005902490239023980990CF
:1006040009A802901190149009982D902E900068DA
:100614002F902F980F900FA81090109807F0CBFFF1
:10062400DDF808C0039A049905980F9BCDF848C0DB
:100634001393DDF824C0CDF8C8C03393CCF8003050
:100644000D92389239912690259025980A900AA8FF
:1006540006901D9020900A982A902B9000682C9068
:100664002C981B901BA81C901C9807F0B1FF0699AE
:100674001B981E911F900A993091319008603CB0EC
:1006840080BD704770477047704770477047704728
:10069400704770477047704770477047704770479E
:1006A400704770477047704770477047704770478E
:1006B400704770477047704770477047704770477E
:1006C400704770477047704770477047704770476E
:1006D400704770477047704770477047704770475E
:1006E400704770477047704770477047704770474E
:1006F400704770477047704770477047704770473E
:10070400704770477047704770477047704770472D
:10071400704770477047704770477047704770471D
:10072400704770477047704770477047704770470D
:1007340070477047704770477047704770477047FD
:1007440070477047704770477047704770477047ED
:1007540070477047704770477047704770477047DD
:1007640070477047704770477047704770477047CD
:1007740070477047704770477047704770477047BD
:1007840070477047704770477047704770477047AD
:10079400704770477047704770477047704770479D
:1007A400704770477047704770477047704770478D
:1007B400704770477047704770477047704770477D
:1007C40070477047704780B56F4682B000910190C2
:1007D400009800F0A7FD02B080BD80B56F4690B0D0
:1007E40001900E9000790146029150B1FFE7029802
:1007F400032808D0FFE70298042805D0FFE710B0CB
:1008040080BD10B080BD00E0FFE70198053000F026
:1008140002F810B080BD80B56F4682B0019000F040
:1008240002F802B080BD80B56F4682B0019000F03E
:1008340002F802B080BD80B56F4682B0019000908E
:10084400009801F08CFA02B080BD80B56F4682B08A
:1008540007F8010C01F0DEFA02B080BD80B56F46E6
:1008640084B00190039005F067FF27F8060CB81FC9
:1008740003F093FA019805F068FF04B080BD80B5D9
:100884006F46C4B006900791069800F017FFFFF773
:10089400B1FC03901090069800F010FF00F02EFEBB
:1008A40001460398C9B20891129040900C214191DD
:1008B4000C302E902D902D98099008A804900A9041
:1008C4000A9809A90191169117901A9109992F91E3
:1008D4003091096831913199149114A915911599A0
:1008E40000F05CF8019B03990498149A18931992E8
:1008F400099B3C933D921A6013913E9104223F92CE
:1009040004312C912B912B990B910C900C980BA9E1
:1009140002911D911E9021910B9932913391096896
:10092400349134991B911BA91C911C9900F073F804
:1009340002991B981F9120900B9938913990086067
:10094400069800F0BBFE0799097800F03FFE039972
:10095400049811914291002243922A912991299954
:100964000D910E900E980DA9059124912590289132
:100974000D9935913691096837913799229122A9B9
:100984002391239900F080F80599229826912790C5
:100994000D993A913B90086044B080BD80B56F4694
:1009A4008CB00A4601920490069204980068029062
:1009B400002107F8191C17F8191C0B46039307921A
:1009C400089007F8091C10280BD3FFE74EF658705F
:1009D400C0F600004FF21802C0F600021D2102F01A
:1009E4003DFB0199039ADDF808C04FEA4C000A90D8
:1009F40008681E2303EA4C034FF0030C0CFA03FCB3
:100A040020EA0C0007F8012C02F003029A4010437C
:100A140008600CB080BD80B56F468CB00A46019268
:100A240004900692049800680290002107F8191CAB
:100A340017F8191C0B4603930792089007F8091C32
:100A440010280BD3FFE74EF65870C0F600004FF2A3
:100A54002802C0F600021D2102F000FB0199039A4E
:100A6400029B0A93086803F01F034FF0010C0CFA71
:100A740003FC20EA0C0002F0010207F8012C9A4062
:100A8400104308600CB080BD80B56F468CB00A4638
:100A9400019204900692049800680290012107F8DC
:100AA400191C17F8191C0B4603930792089007F8B2
:100AB400091C10280BD3FFE74EF65870C0F600004F
:100AC4004FF20802C0F600021D2102F0C7FA019994
:100AD400039ADDF808C04FEA4C000A9008681E2308
:100AE40003EA4C034FF0030C0CFA03FC20EA0C005D
:100AF40007F8012C02F003029A40104308600CB07E
:100B040080BD80B56F4682B00A4600928DF804001D
:100B140007F8011C00F013F89DF80400C00720B981
:100B2400FFE7F81E00F012F803E0F81E00F018F8D2
:100B3400FFE70099F81E00F01DF802B080BD80B5F3
:100B44006F4682B000F07DFD02B080BD80B56F4677
:100B540082B0019000F0B2FD00F0D8FC02B080BD7C
:100B640080B56F4682B0019000F0A8FD00F0FEFC55
:100B740002B080BD80B56F4684B007F80D1C0390A9
:100B84000190A7F10D0002900198029901F000F97B
:100B940004B080BD80B56F4682B00190FFF7D6FFE8
:100BA40002B080BD80B56F4682B00190FFF7D8FFD8
:100BB40002B080BD80B56F4682B007F8010C09F021
:100BC400EFF902B080BD80B56F46AEB004900498D2
:100BD40000F074FDFFF70EFB01900B90049800F0F9
:100BE4006DFD00F08BFC01460198C9B205910D9092
:100BF4002A900C212B910C301F901E901E98069069
:100C040005A802900790079806A9009117911890DB
:100C14001B9106992091219109682291229915919D
:100C240015A91691169900F02FF8009B01990298C6
:100C3400159A19931A92069B289329921A600C917B
:100C44002C9100222D921D911C911C9908910990C0
:100C5400099808A90391109111901491089923916E
:100C640024910968259125990E910EA90F910F9948
:100C740000F047F803990E98129113900899269161
:100C8400279008602EB080BD80B56F468CB00A46B0
:100C9400019204900692049800680290002107F8DB
:100CA400191C17F8191C0B4603930792089007F8B0
:100CB400091C10280BD3FFE74EF65870C0F600004D
:100CC4004FF21802C0F600021D2102F0C7F9019983
:100CD400039ADDF808C04FEA4C000A9008681E2306
:100CE40003EA4C034FF0030C0CFA03FC20EA0C005B
:100CF40007F8012C02F003029A40104308600CB07C
:100D040080BD80B56F468CB00A460192049006926D
:100D1400049800680290002107F8191C17F8191CA0
:100D24000B4603930792089007F8091C10280BD36D
:100D3400FFE74EF65870C0F600004FF20802C0F606
:100D440000021D2102F08AF90199039ADDF808C016
:100D54004FEA4C000A9008681E2303EA4C034FF044
:100D6400030C0CFA03FC20EA0C0007F8012C02F037
:100D740003029A40104308600CB080BD80B56F46F2
:100D840082B001900090009801F01EF802B080BD7E
:100D9400F0B503AF4DF8048DB6B00590059800F09A
:100DA4009BFB01460391169007F048FB00F0C2F844
:100DB40038B9FFE7039807F041FB36B05DF8048BC0
:100DC400F0BD40F27C00C2F2000000F037F802905F
:100DD400179006A8019000F071FA019B03980299FC
:100DE40035910DF1980C6246B3E87040A2E870406A
:100DF400B3E87041A2E8704193E8704182E8704121
:100E040018AB1A46BCE87040A2E87040BCE87041D8
:100E1400A2E870419CE8704182E870410A46B3E858
:100E24003050A2E83050B3E87050A2E8705093E814
:100E3400705082E8705007F00DFBBBE780B56F4639
:100E4400A2B00990109000F051F9024609980C9252
:100E54000D9121901F9012901C904FF480511D9180
:100E640000F5805001460A91139000F030FB00F029
:100E740048F90E900E9800F065F800BBFFE70A9859
:100E84000E99401A079014900E9804900CA805909F
:100E940000F011FF0146049800F015FF0146059883
:100EA4000E9A891A08910A460692159100F0FEFEE0
:100EB4000799024608981044884225D804E0099806
:100EC40020901E900E90DAE706990E981A901B91C6
:100ED4000844039016900E9801900CA800F0E6FECA
:100EE400069A0199034609981A44189119921144D3
:100EF4000291179100F5805000F0E9FA029900F090
:100F040006F9039822B080BD012010B9FFE702F072
:100F1400D6FF03F0CAFE40F20B00C0F2000002F05C
:100F240014FF27F84A0CA7F14A0002F095FF03F0DA
:100F3400C1FEECE782B000900190B0FA80F0400965
:100F440002B0704782B000900190B0FA80F040097E
:100F540002B0704781B0009001B0704782B0009039
:100F6400019102B0704780B56F4684B00090029042
:100F740005F0A0FB019001980DF0F9FAFFE7009845
:100F840005F00FF820BFFAE780B56F468CB00192E8
:100F9400029103900A910B92012A16D8FFE7039954
:100FA4000198029A0A6048604FF23800C0F60000C7
:100FB400026840680A6148614FF23800C0F60000D8
:100FC40088600020C8600CB080BD4FF24C01C0F6B0
:100FD400000104A800900122FFF7D6FF00984FF209
:100FE400A001C0F6000100F01DFF80B56F468AB075
:100FF40001900790FFE7019800F01BF80490049813
:1010040060B1FFE70498089006900699A7F11D00C7
:10101400FFF7D9FB0590059818B906E00020039066
:1010240004E005980990039000E0E4E703980AB00F
:1010340080BD9AB000900121019102910391099021
:10104400002098B9FFE70098011D0A9141680691B4
:101054000B9006A90C9100680D9006990E91401A08
:10106400B0FA80F040098DF8170009E00098406854
:101074000F901090B0FA80F040098DF81700FFE748
:101084009DF81700C00730B9FFE700980068079083
:10109400002070B902E0002004901AE00099081DB5
:1010A40011901290086813903830089008980860DE
:1010B40008E00099081D14901590486816900138AE
:1010C4004860FFE707A817900798189019900490B4
:1010D400FFE704981AB07047B0B502AF81B0009032
:1010E40091E83C5080E83C5001B0B0BD84B0382158
:1010F400029108200390019100900098019904B096
:10110400704782B000900190006802B0704785B0CB
:10111400009001910290039002680492016005B06E
:10112400704780B56F4682B00090019100F002F8DC
:1011340002B080BD80B56F468AB0019107900891D6
:10114400002107F80D1C012107F80D1C00F020F800
:101154000490059104A8FFF748FF0390039820B971
:10116400FFE700F04DF9029009E001990398099016
:10117400002207F80D2C00F02CF80290FFE717F876
:101184000D0CC00718B9FFE702980AB080BDFBE751
:101194008CB000910190069007910890002048B906
:1011A400FFE7019800990991C1EBC10100EBC1006F
:1011B400049003E000980A900490FFE701980B90D4
:1011C40005900498059902910390029803990CB034
:1011D400704780B56F4686B00191029004910298E1
:1011E400143041F21121C0F600010391039900F07B
:1011F4005EFA01990298203000F03DFA029800F05E
:1012040051F8059000F004F906B080BD80B56F4632
:1012140090B00390099004F041FB014602910A90BA
:10122400203000F03CFA014603980F910E910E997C
:1012340004910B9104F08CFD0590069105A80DF026
:101244001DFC01460498079107A90DF0E1F807F881
:101254001D0C17F81D0CC007F0B9FFE702982030E9
:1012640000F0F9F90298083001900D90012007F878
:101274000E0C17F80E0C0DF067F80198002107F812
:101284000D1C17F80D2C0DF051F802984FF0FF3398
:101294001A4604F03AFDFFE705980699FFF75EFE4B
:1012A40010B080BD80B56F4682B0019000F020F987
:1012B40000F017F90090009802B080BDB0B502AFFD
:1012C40092B0029000200390FFE703980190C8B900
:1012D400FFE70198C0EBC00204A901EBC2014FF281
:1012E400B002C0F60002B2E81850A1E81850B2E803
:1012F4003850A1E8385092E8385081E8385001302D
:101304000390E2E7029804A9B1E80C50A0E80C505D
:10131400B1E81C50A0E81C5091E81C5080E81C5017
:1013240012B0B0BD80B56F468CB0049004980830FC
:1013340002900A90012007F8150C17F8150C0DF00F
:1013440003F8029804F0D6FC002107F80B1C07F8F8
:101354000A1C17F80B3C17F80A2CEC46CCF80020B2
:1013640040F201120DF03CF80790089107A800F034
:101374004AFD039007F8010C022007F8090C17F83E
:10138400090C0CF0E1FF039804A90591059900F0FC
:10139400C6FC0CB080BD82B000900098006801903B
:1013A400019802B0704782B0009101460098019004
:1013B40008600020087102B0704780B56F4684B0A1
:1013C4000190039040F27000C2F20000FFF7D6FCD7
:1013D400019902910299FFF7A4FE04B080BD80B583
:1013E4006F4600F000F880B56F4686B001A8009003
:1013F40004F0DDFB00980DF007F80590FFF7B3FD4E
:1014040082B00020019001980090009802B07047CB
:1014140083B00290019001980090009803B0704747
:1014240080B56F4686B00390049100F028F8FFF76A
:101434000CFA8DF808009DF80800C00710B9FFE702
:1014440006B080BDA7F10F000590012010B9FFE799
:1014540002F035FD03F029FC40F20A00C0F200005E
:1014640002F073FC27F80E0CA7F10E0002F0F4FC56
:10147400A7F10F00FFF7F2F903F01CFCE8E780B5D1
:101484006F4688B00191014601980291059106903A
:101494000490FFF75FFD049820B9FFE7012007F8E7
:1014A400110C09E0029804990791006804F070FD9A
:1014B400002007F8110CFFE717F8110C08B080BDE5
:1014C40084B0019100908DF8082004B0704784B076
:1014D4000190039004B0704784B00190039004B06D
:1014E400704783B0019002900090009803B0704759
:1014F40082B001900090009802B0704780B56F46AA
:1015040082B00190FEF762FE02B080BD80B56F46E6
:1015140094B000900590FEF759FE01460098C9B2B8
:101524000291FEF767FE069011901821129118306F
:101534000E900D900D98039002A80490049803A9AE
:10154400019109910A90002113911399079107A918
:101554000891089900F015FB019907980B910C90DC
:1015640003990F911090086014B080BD80B56F4648
:1015740094B000900590FEF729FE01460098C9B288
:101584000291FEF737FE069011901821129118303F
:101594000E900D900D98039002A80490049803A94E
:1015A400019109910A90002113911399079107A9B8
:1015B4000891089900F00FFB019907980B910C9082
:1015C40003990F911090086014B080BD80B56F46E8
:1015D4009AB0009007F85D1C0790FEF7F7FD0146EE
:1015E4000098C9B20391FEF705FE089018900821EF
:1015F40019910830129011901198049003A8059045
:10160400A7F15D0006900598069904AA01920B9231
:101614000C900D911092049A1392149212681592E0
:10162400159A099209AA0A920A9A00F0FCFA0199F9
:1016340009980E910F9004991691179008601AB0AA
:1016440080BD80B56F4682B0781E00F0D8FB00F0F4
:1016540039F802B080BD80B56F4682B0019000F0C9
:1016640004F8FFF7BAF802B080BD83B0009001908F
:10167400029003B0704780B56F468CB001910A9018
:101684000B91FFF7F2FF0199029004A803900CF06C
:1016940066FF02980399FFF71FFD0CB080BD80B56B
:1016A4006F4682B00190FFF7E0FF02B080BD83B0C7
:1016B400009001910290016003B0704781B00090E6
:1016C40001B0704781B001B07047D4D480B56F4683
:1016D400B2B09C46089209910A90BB6807F896CC70
:1016E40007F8953C29902A912B9217F8960C0B90A9
:1016F4000B99DFE801F0041325374900FEDE17F8E3
:10170400950C01460791002856D0FFE70798022858
:1017140066D0FFE70798042878D047E017F8950CBF
:1017240001460691002800F09580FFE706980228FC
:1017340000F0A680FFE70698042800F0B98035E0A1
:1017440017F8950C01460591002800F0C980FFE7C1
:101754000598022800F0DA80FFE70598042800F0D5
:10176400EB8023E017F8950C01460491002800F063
:10177400FB80FFE70498022800F00E81FFE704983D
:10178400042800F0218111E017F8950C014603911B
:10179400002800F03181FFE70398022800F044811B
:1017A400FFE70398042800F05781FFE717F8950C2A
:1017B400012800F077817FE109980A9BDDF820C0B9
:1017C40053E8001F014503D143E800C2002AF7D1C2
:1017D400081AB0FA80F040090F918DF840002DE00E
:1017E40009980A9BDDF820C053E8001F014503D186
:1017F40043E800C2002AF7D1081AB0FA80F0400981
:10180400BFF35F8F0F918DF8400017E009980A9B92
:10181400DDF820C0BFF35F8F53E8001F014503D1FB
:1018240043E800C2002AF7D1081AB0FA80F0400950
:10183400BFF35F8F0F918DF84000FFE70F98029080
:101844002C909DF8400007F8110CC007002840F0C8
:10185400208119E109980A9BDDF820C0BFF35F8F4E
:1018640053E8001F014503D143E800C2002AF7D121
:10187400081AB0FA80F040090F918DF84000DDE7B6
:1018840009980A9BDDF820C0BFF35F8F53E8001F5F
:10189400014503D143E800C2002AF7D1081AB0FA7F
:1018A40080F04009BFF35F8F0F918DF84000C5E7CA
:1018B40009980A9BDDF820C0BFF35F8F53E8001F2F
:1018C400014503D143E800C2002AF7D1081AB0FA4F
:1018D40080F04009BFF35F8F0F918DF84000ADE7B2
:1018E40009980A9BDDF820C053E8001F014503D185
:1018F40043E800C2002AF7D1081AB0FA80F0400980
:10190400BFF35F8F0F918DF8400097E709980A9B0A
:10191400DDF820C053E8001F014503D143E800C2AD
:10192400002AF7D1081AB0FA80F04009BFF35F8F9C
:101934000F918DF8400081E709980A9BDDF820C0DB
:10194400BFF35F8F53E8001F014503D143E800C292
:10195400002AF7D1081AB0FA80F04009BFF35F8F6C
:101964000F918DF8400069E709980A9BDDF820C0C3
:10197400BFF35F8F53E8001F014503D143E800C262
:10198400002AF7D1081AB0FA80F04009BFF35F8F3C
:101994000F918DF8400051E709980A9BDDF820C0AB
:1019A400BFF35F8F53E8001F014503D143E800C232
:1019B400002AF7D1081AB0FA80F04009BFF35F8F0C
:1019C4000F918DF8400039E709980A9BDDF820C093
:1019D400BFF35F8F53E8001F014503D143E800C202
:1019E400002AF7D1081AB0FA80F04009BFF35F8FDC
:1019F4000F918DF8400021E709980A9BDDF820C07B
:101A0400BFF35F8F53E8001F014503D143E800C2D1
:101A1400002AF7D1081AB0FA80F04009BFF35F8FAB
:101A24000F918DF8400009E709980A9BDDF820C062
:101A3400BFF35F8F53E8001F014503D143E800C2A1
:101A4400002AF7D1081AB0FA80F04009BFF35F8F7B
:101A54000F918DF84000F1E609980A9BDDF820C04B
:101A6400BFF35F8F53E8001F014503D143E800C271
:101A7400002AF7D1081AB0FA80F04009BFF35F8F4B
:101A84000F918DF84000D9E602980E9001200D9038
:101A940004E002980E9000200D90FFE70D980E9937
:101AA40032B080BD4FF21C10C0F600002E90012011
:101AB4002F90002040BB0AE04FF23420C0F6000013
:101AC400309001203190002000284AD12CE04FF2C0
:101AD4001C10C0F600001790012018904FF2380037
:101AE400C0F60000016840681B911C904FF224105E
:101AF400C0F60000199000201A904FF27411C0F63D
:101B0400000117A800F08EF94FF29011C0F6000101
:101B14001DA801900122FFF737FA01984FF2E41152
:101B2400C0F6000100F07EF94FF23420C0F6000048
:101B34001190012012904FF23800C0F600000168A5
:101B44004068159116904FF22410C0F600001390CF
:101B5400002014904FF23C21C0F6000111A800F0BF
:101B640061F94FF29011C0F6000123A80090012200
:101B7400FFF70AFA00984FF2E411C0F6000100F0F2
:101B840051F980B56F4688B0009102900391029894
:101B94000068019004910590012107F8051C1028A4
:101BA4000BD3FFE74FF2C420C0F600004FF27432AB
:101BB400C0F600021D2101F051FA0099019800F1CC
:101BC40010020792086802F01F0301229A40104392
:101BD400086008B080BD80B56F4688B0009102905F
:101BE400039102980068019004910590012107F87F
:101BF400051C10280BD3FFE74FF2C420C0F60000E9
:101C04004FF28432C0F600021D2101F027FA009938
:101C1400019A0792086802F01F0301229A401043B8
:101C2400086008B080BD80B56F468CB00192049006
:101C340005910692049905980968029100784FF27B
:101C4400B421C0F60001FEF7B5FF019A01460298DF
:101C54000B4603930792089007F8091C10280BD32E
:101C6400FFE74FF2C420C0F600004FF29432C0F6F2
:101C740000021D2101F0F2F90199039ADDF808C070
:101C84004FEA4C000A9008681E2303EA4C034FF005
:101C9400030C0CFA03FC20EA0C0007F8012C02F0F8
:101CA40003029A40104308600CB080BD81B00090DC
:101CB400406801B0704783B00190006802900090C2
:101CC400009803B0704780B56F4688B002910390C6
:101CD4000590069159B1FFE70299039AB2FBF1F01E
:101CE40000FB112001460191079058B10DE04FF21D
:101CF4000040C0F600004FF2F032C0F60002392175
:101D040001F0ACF90398049006E003980299019A53
:101D1400891A08440490FFE7049808B080BD80B590
:101D24006F4684B0009107F8050C0391012107F870
:101D3400061C18B9FFE70020019007E00098002175
:101D440007F8061CFFF727FB0190FFE717F8060CBE
:101D5400C00718B9FFE7019804B080BDFBE780B560
:101D64006F4684B00090029001F0A1FD01460098F6
:101D740007F8011C17F8011C07F8021C07F8091CD6
:101D8400FEF721FFA7F109000BF0D0FF04B080BDDE
:101D940080B56F4686B0009101900390049101F0E4
:101DA40086FD00990246019807F8012C17F8012CCA
:101DB40007F8022C07F80D2CFEF761FDA7F10D00C2
:101DC4000BF0B4FF06B080BD80B56F4686B00190BD
:101DD400049001F06CFD0146019807F8011C17F806
:101DE400011C07F8021C07F8091CFEF7D1FF02903A
:101DF400A7F109000BF09AFF029806B080BD81B0EC
:101E0400009001B0704781B00090006880F001003C
:101E140001B0704781B08DF8030001B070470068CD
:101E2400FFE7FEE780B56F4686B04FF23C42C0F64E
:101E3400000201924FF2DC42C0F6000202920390CB
:101E4400049101208DF8140000208DF8150001A8DC
:101E54000CF02EFD70474EF6FE40C7F6837042F23A
:101E64007131C5F6041146F2C222C0F65F2248F66B
:101E74007663C9F67973704780B56F468EB0009269
:101E84000A4600990192024601980292039002A820
:101E94000A9041F60D70C0F600000B9003AA0C9254
:101EA4000D904FF25460C0F600000490022005909B
:101EB400002208920AAA0692079004A8FFF7B2FF2C
:101EC40080B56F468EB000920A4600990192024690
:101ED40001980292039003A80A9041F60D70C0F68F
:101EE40000000B9002AA0C920D904FF21850C0F60D
:101EF4000000049002200590002208920AAA06928B
:101F0400079004A8FFF78EFFF0B503AF4DF804BDAA
:101F140096B009910068272142F20F7290420A910B
:101F24000B9009D8FFE70A990B980590069163284E
:101F34000791089037D852E00B9ADDF828C09646EE
:101F440041F25970CDF2B710AEFB0010410B0846B8
:101F540042F2107301FB13E399B2890841F27B4EFC
:101F640001FB0EF14C0C642104FB113149001FFAF2
:101F740081FEACF1040631464FF25853C0F600031B
:101F840033F81450A7F13704A553A44433F80E30A2
:101F94002CF8023C4EF2FF03C0F2F5539A420A9128
:101FA4000B90C9D8BFE70699059B98B2800841F207
:101FB4007B425043400C642200FB1232520093B225
:101FC400A1F1020C61464FF25852C0F60002D25AF7
:101FD400A7F1370323F80C2007910890FFE707992E
:101FE4000898039004910A280FD3FFE7039A0498F2
:101FF400831E18464FF25851C0F6000131F81210F2
:10200400A7F13702D152029009E003990498431EC4
:1020140018463031A7F13702D1540290FFE70998EE
:10202400029AA7F137011144C2F127036A465360AB
:1020340011604FF23C42C0F600020121002300F07F
:1020440005F816B05DF804BBF0BDD4D4D0B502AF2A
:10205400C2B03D933E923F90F8684090B86841907A
:1020640049B9FFE73F9940980130CA692D213A9256
:102074003B913C900EE0409B3F98C26902F0010006
:102084002B21002808BF4FF4881118443A923B9141
:102094003C90FFE73A9A3B993C98359036913792B9
:1020A40000215207002A3891399040F19E80FFE7C1
:1020B4003D98102806D3FFE73D993E9800F0CEF9ED
:1020C40034908BE03D9900200029349000F0868004
:1020D400FFE73D9901F003003190002004290146F7
:1020E4003291339044D3FFE73D9820F00301002060
:1020F4002D9101462E9101462F913090FFE7309AA1
:102104002F982E99DDF8B4C03E9B1C5601F1010EA8
:1021140014F1410FC8BF714640F0010E13F90E408F
:1021240001F1010E14F1410FC8BF714640F0020ED7
:1021340013F90E4001F1010E14F1410FC8BF7146AD
:1021440040F0030E13F90EE04B1C1EF1410FC8BF03
:1021540019460430131D1A4663450B462E93034655
:102164002F9330920A462C9232913390C7D1FFE7D5
:1021740031992C98329A339B2A932B92349069B3D9
:10218400FFE731992B983E9A2A9BD356421C13F1B0
:10219400410FC8BF10462990012934901ED0FFE793
:1021A400319929982A9A3E9B1A4492F90130421C8B
:1021B40013F1410FC8BF10462890022934900DD066
:1021C400FFE728982A993E9A114491F90220411C6C
:1021D40012F1410FC8BF08463490FFE73E99359A83
:1021E4003498104438913990FFE73F983899399AD8
:1021F400269227910068A8B9FFE7279B369ADDF855
:10220400F4C03F994869239089692491EE46CEF839
:1022140000C000F070FC014601200029259040F028
:10222400188106E026983F9949682291884208D38C
:102234000CE0409A41992398249BDB6898472590A9
:1022440007E137980007002815D55CE0279B369AEC
:10225400DDF8F4C03F994869209089692191EE46E0
:10226400CEF800C000F047FC01460120002925906B
:1022740040F0EF80E5E03F982299269A891A1D9153
:1022840090F8200001461E911F901F991D9A1E9BD5
:102294001B931C92DFE801F00F030803FEDE1D9977
:1022A40000201B911C9006E01D9841080130400855
:1022B4001B911C90FFE73F981B991C9A149215914F
:1022C40001691691416917918069189000F1100114
:1022D400002019911A90FFE715991A9813908842D3
:1022E40038D0FFE716991798199A139B0133129364
:1022F40012689047129902460120002A1A912590EB
:1023040040F0A780E8E7279B369ADDF8F4C03F99B0
:102314008E465EF8100FCDF82CE00C903020CEF8ED
:10232400000011F8200F0D910E90012011900870FB
:1023340051F80C0C0F9051F8081C1091EE46CEF891
:1023440000C000F0D8FB014611980029259040F008
:10235400808042E0279B369A18991798DDF8F4C0DC
:10236400EE46CEF800C000F0C6FB0146012000296D
:1023740025906ED1FFE7409A41991798189BDB6826
:102384009847014601200029259062D1FFE717995B
:10239400002918BF012100200A90FFE714980A9928
:1023A40008918142099010D0FFE7089B169917986D
:1023B400199A0133079312689047079902460898BF
:1023C400002A0A910990E9D0FFE7149A099900209C
:1023D400914238BF012025903BE010982299269A1B
:1023E400891A049100F11001002005910690FFE77D
:1023F40004990698039088420FD0FFE70F98059937
:10240400039A013202920A683021904702990246E7
:10241400012006912590E2B9EAE7409A41990F9884
:10242400109BDB68984701460120259089B9FFE796
:102434000E980D990C9A0B9B1A6008700020259039
:1024440007E0409A41992098219BDB6898472590A2
:10245400FFE7259800F0010042B0D0BDF0B503AF0E
:102464004DF804BDC2B03D9102463E9210463F90E5
:10247400D01C20F0030003464093801A0246419288
:10248400884200F2CF80FFE73D98419A3E9911447B
:102494000B463993801A82083A9200F003023B9269
:1024A40020F0030211443C910428C0F0BB80FFE7F4
:1024B40040993F9A0020914238907BD0FFE74098A2
:1024C4003F99C9430144002003290146359101463F
:1024D4003691379034D3FFE73799369A35983E9B37
:1024E40013F902E000F1010C1EF1410FC8BF604670
:1024F40042F0010C13F90CE000F1010C1EF1410F44
:10250400C8BF604642F0020C13F90CE000F1010C64
:102514001EF1410FC8BF604642F0030C13F90CC012
:10252400431C1CF1410FC8BF184604320B1D194649
:10253400002B03463593369237913490CCD1FFE784
:1025440040993F9A3498359BDDF8D8C0CDF8C8C07F
:102554003393914238902DD0FFE7419933983E9AB6
:10256400329BD356421C13F1410FC8BF1046319021
:10257400012938901ED0FFE741993198329A3E9B49
:102584001A4492F90130421C13F1410FC8BF10469E
:102594003090022938900DD0FFE7309832993E9A56
:1025A400114491F90220411C12F1410FC8BF0846A1
:1025B4003890FFE73B9938982E9000202F9041B334
:1025C400FFE73B993C9890F90020002012F1410F5D
:1025D400C8BF01202D9001292F901AD0FFE73B9905
:1025E4002D983C9A92F90130421C13F1410FC8BF57
:1025F40010462C9002292F900BD0FFE72C983C9981
:1026040091F90220411C12F1410FC8BF08462F90D6
:10261400FFE73A99399A2E9B2F98184429922A91C8
:102624002B9057E03D9900200029289000F05E820D
:10263400FFE73D9901F0030025900020042901469D
:1026440026912790C0F01C82FFE73D9820F00301FB
:102654000020219101462291014623912490FFE715
:10266400249A23982299DDF884C03E9B1C5601F1DC
:10267400010E14F1410FC8BF714640F0010E13F969
:102684000E4001F1010E14F1410FC8BF714640F034
:10269400020E13F90E4001F1010E14F1410FC8BFEF
:1026A400714640F0030E13F90EE04B1C1EF1410F6E
:1026B400C8BF19460430131D1A4663450B462293BE
:1026C4000346239324920A4620922691279000F0F1
:1026D400D781C5E7299A2A992B981D901E911F929C
:1026E4000029289000F00282FFE71E991F9AC0205B
:1026F400C02938BF08460346179302EB800218929C
:10270400091A199100F0FC010A461A9200F003001C
:102714001B90002000291C9000F05F81FFE71F98A8
:10272400179A6FF00F0101EB8202012101EB1211E4
:102734000B46139301F0030114910021302A1591E3
:102744001690C0F0BF80FFE71F9913984FF6FC72F4
:10275400C1F6FF72024000200F92024610921191BE
:102764001290FFE7129A1198109BDDF83CC00D906F
:10277400066845688468D0F80CE0F143C90941EA69
:10278400961121F0FE310B44E943C90941EA951140
:1027940021F0FE310B44E143C90941EA941121F0CF
:1027A400FE310B446FEA0E01C90941EA9E1121F082
:1027B400FE310B44D0F810E06FEA0E01C90941EA7A
:1027C4009E1121F0FE310B44D0F814E06FEA0E01A3
:1027D400C90941EA9E1121F0FE310B44D0F818E0FA
:1027E4006FEA0E01C90941EA9E1121F0FE310B4442
:1027F400D0F81CE06FEA0E01C90941EA9E1121F0EC
:10280400FE310B44D0F820E06FEA0E01C90941EA19
:102814009E1121F0FE310B44D0F824E06FEA0E0142
:10282400C90941EA9E1121F0FE310B44D0F828E099
:102834006FEA0E01C90941EA9E1121F0FE310B44F1
:10284400D0F82CE06FEA0E01C90941EA9E1121F08B
:10285400FE310B44D0F830E06FEA0E01C90941EAB9
:102864009E1121F0FE310B44D0F834E06FEA0E01E2
:10287400C90941EA9E1121F0FE310B44D0F838E039
:102884006FEA0E01C90941EA9E1121F0FE310B44A1
:10289400D0F83CE06FEA0E01C90941EA9E1121F02B
:1028A400FE3119444030131D1A4663450B461093FC
:1028B4000346119312920A460E92159116907FF4D4
:1028C40051AFFFE714990E98159A169B0B930C922F
:1028D40000291C9000F08180FFE714990C9A0B9852
:1028E4000468D0F804E0D0F808C0C368E043C00925
:1028F40040EA941020F0FE3002446FEA0E00C00952
:1029040040EA9E1020F0FE3002446FEA0C00C00939
:1029140040EA9C1020F0FE300244D843C00940EA4B
:10292400931020F0FE3010440A9001291C9054D0DA
:10293400FFE714990A9A0B980469D0F814E0D0F8C8
:1029440018C0C369E043C00940EA941020F0FE3087
:1029540002446FEA0E00C00940EA9E1020F0FE30E7
:1029640002446FEA0C00C00940EA9C1020F0FE30DB
:102974000244D843C00940EA931020F0FE301044CA
:10298400099002291C9028D0FFE709990B98D0F8E8
:1029940020E0D0F824C0836AC26A6FEA0E00C0093E
:1029A40040EA9E1020F0FE3001446FEA0C00C0099A
:1029B40040EA9C1020F0FE300144D843C00940EAAC
:1029C400931020F0FE300144D043C00940EA921035
:1029D40020F0FE3008441C90FFE71999189A1B9BBD
:1029E4001D98DDF870C03FFA8CFE3FFA9CFCF4445D
:1029F4000CEB0C4C00EB1C400890002B29922A9104
:102A04002B903FF467AEFFE71B991F981A9A00EBCF
:102A14008203059350F82220D043C00940EA921063
:102A240020F0FE300690012907900DD1FFE70898A9
:102A340007993FFA81F23FFA91F1114401EB014108
:102A440000EB1140289051E01B99069A05984368C1
:102A5400D843C00940EA931020F0FE30104404909B
:102A640002290790E3D0FFE7049905988268D043D0
:102A7400C00940EA921020F0FE3008440790D6E7DF
:102A840025992098269A279B02930392289069B34C
:102A9400FFE7259903983E9A029BD356421C13F1F3
:102AA400410FC8BF10460190012928901ED0FFE7AE
:102AB40025990198029A3E9B1A4492F90130421CCE
:102AC40013F1410FC8BF10460090022928900DD081
:102AD400FFE7009802993E9A114491F90220411CA3
:102AE40012F1410FC8BF08462890FFE7289842B06A
:102AF4005DF804BBF0BD80B56F4686B001930292C9
:102B040003910490B8680590B2F5881F0AD0FFE7D6
:102B140002990498039A1269904701460120009093
:102B240029B9FFE701990020009029B9FFE700982F
:102B340000F0010006B080BD059A01990498039B3A
:102B4400DB6898470090F2E780B56F468EB000923C
:102B54000A4600990192024601980292039002A843
:102B64000A9041F60D70C0F600000B9003AA0C9277
:102B74000D904FF26460C0F60000049002200590AE
:102B8400002208920AAA0692079004A8FFF74AF9BD
:102B9400D0B502AFC4B03F9240910146419108685C
:102BA400896880F0010208434292B1FA81F149092F
:102BB400439150B1FFE740983F99439AD207002AC6
:102BC4003D913E9040F0158108E03F9A4099419B29
:102BD40058699B69DB6898473C903AE240993F9872
:102BE400419AD26837920A180020389202463992E4
:102BF4003A913B90FFE73799399A3A9B3B98349046
:102C040035933692884200F08680FFE740983F99DA
:102C1400359A389BDDF8D0C00CF1010CCDF8C8C052
:102C24009446CDF8CCC09A423D913E9000F0E180AC
:102C3400FFE7359911F9010B3091C1B23191B0F12F
:102C4400FF3F18DCFFE730983599319BDAB203F087
:102C54001F039C46CDF8ACC002312C91007800F0E3
:102C64003F008446CDF8B4C040EA8310DF2A2E9199
:102C74002F9006D839E030993198C0B22E912F9018
:102C840033E0319A2B9BDDF8B4C02C98359903318D
:102C94002991007800F03F0040EA8C108446CDF87A
:102CA400A8C040EA0330D2B2F02A2E912F901CD350
:102CB400FFE740983F99DDF8A8E0DDF8ACC0299A19
:102CC400359B043312780CF0070C02F03F0242EA01
:102CD4008E1242EA8C4C6246BCF5881F2E932F92CA
:102CE4003D913E9000F08580FFE740983F99329AED
:102CF400DDF8D8C0339C2E9BDDF8BCE0ACEB040CB3
:102D04009C44BEF5881FCDF8E4C03A933B923D91B4
:102D14003E906ED06FE740983F99359A389B9A421F
:102D24003D913E9065D0FFE7359890F90000C1B21F
:102D34002891B0F1FF3F34DCFFE728983599013141
:102D44002691C0B201462791E0282AD3FFE72898AC
:102D54003599269A1278249202312591C0B2F0282E
:102D64001FD3FFE740983F99279BDDF8D4C0259AED
:102D7400DDF890E00EF03F0E127802F03F029CF86E
:102D840003C003F00703920142EA0E320CF03F0C39
:102D9400624442EA8342B2F5881F3D913E9028D0B6
:102DA400FFE73698A8B1FFE736983F99884207D3E2
:102DB400FFE736993F9A00209142239009D00BE017
:102DC400409836994156002011F1400F239003DBBF
:102DD400FFE740982390FFE7409A3F9B369923985A
:102DE400002808BF1946002808BF10463D913E90B0
:102DF400FFE742983D993E9A21922291C00748B13B
:102E0400FFE7229A2199419B58699B69DB6898479F
:102E14003C901EE12298419949682091102806D3DC
:102E2400FFE722992198FFF719FB1F908BE0229965
:102E3400002000291F9000F08680FFE7229901F00E
:102E440003001C900020042901461D911E9044D3C8
:102E5400FFE7229820F00301002018910146199100
:102E640001461A911B90FFE71B9A1A981999DDF8ED
:102E740060C0219B1C5601F1010E14F1410FC8BF23
:102E8400714640F0010E13F90E4001F1010E14F1E8
:102E9400410FC8BF714640F0020E13F90E4001F114
:102EA400010E14F1410FC8BF714640F0030E13F92F
:102EB4000EE04B1C1EF1410FC8BF19460430131D10
:102EC4001A4663450B46199303461A931B920A4606
:102ED40017921D911E90C7D1FFE71C9917981D9A50
:102EE4001E9B159316921F9069B3FFE71C991698C1
:102EF400219A159BD356421C13F1410FC8BF1046AB
:102F0400149001291F901ED0FFE71C991498159A5C
:102F1400219B1A4492F90130421C13F1410FC8BF9E
:102F24001046139002291F900DD0FFE713981599AE
:102F3400219A114491F90220411C12F1410FC8BF9A
:102F440008461F90FFE720991F981290884246D2A6
:102F5400FFE741982099129A891A0F9190F820005E
:102F640000211091119011990F9A109B0D930E92BC
:102F7400DFE801F00F03080FFEDE0F9900200D912A
:102F84000E9006E00F984108013040080D910E9014
:102F9400FFE741980D990E9A0692079101690891ED
:102FA4004169099180690A9000F1100100200B9198
:102FB4000C90FFE707990C980590884218D0FFE71A
:102FC400089909980B9A059B01330493126890475A
:102FD4000499024601200C913C90D2BBEAE7229A64
:102FE4002199419B58699B69DB6898473C9030E084
:102FF400229A219909980A9BDB6898470146012087
:103004003C9031BBFFE70999002918BF012100203A
:103014000390FFE70698039901918142029010D032
:10302400FFE7019B089909980B9A013300931268F2
:103034009047009902460198002A03910290E9D032
:10304400FFE7069A02990020914238BF01203C9084
:10305400FFE73C9800F0010044B0D0BD80B56F4656
:103064008AB000920A460099019202460198089299
:10307400099008A8029001200390002006904FF2C6
:103084003C42C0F600020492059002A8FEF7CAFE74
:1030940081B00091024600981168526801B0FFF7B0
:1030A40077BD80B56F46BAB02992034631A800F1C6
:1030B4001C0CCDF8A8C04FF0000CCDF8E0C000F116
:1030C400100ECDF8ACE04FF0200ECDF8D4E000F1B6
:1030D400200ECDF8B0E04FF0030E8DF8E4E0CDF80B
:1030E400C4C000F1080ECDF8B4E0CDF8CCC000F1B6
:1030F400140CCDF8B8C0369318302F90379110695E
:103104003090E0B9FFE7299988682590C96826912D
:1031140000EBC100279000200029289041D0FFE750
:1031240025982699299A136821935268013921F028
:1031340060414A1C002122922391249021E030987E
:10314400299949691F9100EB411020900020289093
:1031540039B3FFE730981F99299A13681893536875
:1031640093681993D26831AA131D1A930C321B92D7
:10317400013921F078414A1C00211C921D911E90B6
:1031840035E021982399249A1392083214924A1C08
:10319400159200EBC100014616914068179090B15A
:1031A40006E0299928981290496888422FD340E074
:1031B400179A16992F9B2E9800681B680968DB687C
:1031C400984788B9FFE7139908684A6831A9904776
:1031D40050B9FFE722981499159A279B9942239294
:1031E40024912890DDD0CCE70120119024E0189898
:1031F4001D991E9A0C9220320D924A1C0E9200EBDD
:10320400C10001460F914068109030B319E0DDF819
:1032140048C02F9B2E982999096801EBCC020068BD
:103224001B6851F83C105268DB6898470028DBD1D2
:10323400FFE700201190FFE7119800F001003AB079
:1032440080BD109A0F992F9B2E9800681B680968FF
:10325400DB6898470028C7D1FFE70C992A9A2C9B72
:10326400DDF8ACC00869CCF80000087F18708869E4
:10327400106088680990C9680A9100210B9140B1D7
:10328400FFE70998012809D0FFE70B9808901CE094
:10329400FEDE0A9901200791089016E019980A9910
:1032A40000EBC100014606914168002041F623620B
:1032B400C0F600029142089007D1FFE70698006823
:1032C4000168012007910890FFE70C991A9A079862
:1032D400089B3193106008680390496804910021A9
:1032E400059140B1FFE70398012809D0FFE705984D
:1032F40002901CE0FEDE049901200191029016E088
:103304001998049900EBC10001460091416800201E
:1033140041F62362C0F600029142029007D1FFE712
:10332400009800680168012001910290FFE7199854
:103334000C991B9BDDF8B4E0019ADDF808C0CEF8C7
:1033440000C01A604A6900EBC20150F832004A68B2
:1033540031A9904700287FF447AFFFE70D980E99F5
:103364001C9A209B984228921D911E903FF419AFFD
:103374003DE780B56F468EB000920A4600990192EF
:10338400024601980292039002A80A9041F60D7039
:10339400C0F600000B9003AA0C920D904FF29860B7
:1033A400C0F60000049002200590002208920AAAA8
:1033B4000692079004A8FEF735FD80B56F460246D5
:1033C4004FF28940C0F600002B21FFF747FE80B57D
:1033D4006F468CB000920A46009901920246019809
:1033E4000292039002A80A9043F29500C0F60000EE
:1033F4000B904FF28040C0F600000490012005902D
:10340400002208920AAA0692079004A8FEF70AFD71
:10341400F0B503AF2DE9000B9AB00390486904900E
:1034240089690591CB6806934FF2CC41C0F600013F
:103434000C229847014601200029079075D1FFE727
:1034440005990498039AD2F80CC00CF108020CF107
:103454000C03CDF850C043F2950CC0F6000CCDF827
:1034640054C0169241F60D72C0F6000217921893DA
:1034740019924FF2B442C0F600020E9203220F9248
:103484000023129314AB109311920EAAFFF709FEB6
:10349400014601200029079047D1FFE7039880687F
:1034A400029068B1FFE7069B04984FF2D841C0F63A
:1034B400000102229847014601200790A9BB20E0A1
:1034C4000399086801904968C968884741F2816C8A
:1034D400CFF6BC5C83EA0C034CF69C0CCCF2A21C29
:1034E40081EA0C0119434EF66473C0F2B1035A40E9
:1034F40047F6C133CCF61E53584010430843D8B1A5
:1035040010E005990498DDF808C008AA13469CE861
:10351400704383E87043FFF7C4FD01460120079020
:1035240019B9FFE700200790FFE7079800F00100B2
:103534001AB0BDE8000BF0BD069B04984FF2D841C9
:10354400C0F6000102229847014601200029079095
:10355400EBD1FFE7069B0498019A116852689847DB
:103564000146012000290790DFD1DBE780B56F46D3
:1035740088B001464FF2FC40C0F60000069043F2CA
:103584009500C0F6000007904FF28040C0F600009E
:103594000090012001900022049206AA0292039056
:1035A4006846FEF73FFC80B56F46AEB00A910168ED
:1035B4000EA800F1800280200B920C910D901DE06A
:1035C4000798069903390891099010E00698811E1E
:1035D4000338089109900AE00698411E02380891C0
:1035E400099004E00699481E08910990FFE708999C
:1035F400099804900591802847D84EE00B9A0C98BE
:103604000D9906910290039200F00F0337210A2BC3
:1036140038BF3021194402F8011C1028E2D3FFE717
:103624000298039AC3B23721A02B38BF302101EB93
:10363400131102F8021CB0F5807FCDD3FFE7029886
:10364400039AC0F3032337210A2B38BF30211944CE
:1036540002F8031CB0F5805FB8D3FFE7029B06981D
:10366400039AC3F3033C3721BCF10A0F38BF30215E
:10367400614402F8041D190C04380790B3F5803F27
:103684000B920C910D909BD3B8E704984FF24852DB
:10369400C0F600028021FEF7EFFB0A98049A059910
:1036A400C1F181030EA911446A46536011604FF2BF
:1036B4004352C0F6000201210223FEF7C7FC2EB0DC
:1036C40080BD82B0009000680190019802B07047FC
:1036D40082B000908DF80710017002B0704782B07C
:1036E40000900191016002B0704780B56F4682B0CE
:1036F40000F00AF800F01DF8009007F8010C00F043
:1037040026F8009802B080BD83B0EFF310800290D9
:1037140002980190C00720B9FFE700208DF803004C
:1037240003E001208DF80300FFE79DF8030003B0D8
:10373400704780B56F4682B007F8010C4FF2B47140
:10374400C0F60001781E00F08CF802B080BD80B590
:103754006F4682B072B6042007F8010C17F8010C0A
:1037640000F002F802B080BD80B56F4692B007F851
:10377400390C17F8390C02900299DFE801F0040EB5
:103784000F101100FEDE4FF24C70C0F600001090D6
:1037940001201190002008BB03E02FE02EE02DE073
:1037A4002CE04FF24C70C0F600000490012005900C
:1037B4004FF23800C0F60000016840680891099093
:1037C4004FF2A860C0F600000690002007904FF268
:1037D400A471C0F6000104A8FEF724FB4FF2B46103
:1037E400C0F600010AA80190012200F009F801982E
:1037F4004FF20871C0F60001FEF714FB12B080BD51
:1038040080B56F468CB00192029103900A910B929D
:10381400012A16D8FFE703990198029A0A604860C2
:103824004FF23800C0F60000026840680A6148613F
:103834004FF2A860C0F6000088600020C8600CB099
:1038440080BD4FF2B461C0F6000104A800900122CB
:10385400FFF7D6FF00984FF20871C0F60001FEF79B
:10386400E1FA84B000900191007802900978039104
:10387400401AB0FA80F0400904B0704780B56F4632
:1038840082B007F8010C10B9FFE702B080BD00F068
:1038940001F8FAE780B56F4682B0042007F8010CFE
:1038A40017F8010CFFF760FF62B602B080BD80B567
:1038B4006F46FFF71AFF80BD80B56F4682B007F8E8
:1038C400010CFFF7DBFF02B080BDFFE7FEE77047A6
:1038D40080B56F4696B00193029203910490D7F895
:1038E40008C0CDF814C00A900B910C920D930E9061
:1038F4000F91884205D8FFE70398019988421BD8A5
:1039040004E0059A03990498FFF733FD0299049A99
:103914000398019B10911193801A129013911144F2
:1039240014911591089109900899099806910790A6
:103934000698079916B080BD059A01990398FFF778
:1039440003F980B56F4682B0024600920191106877
:103954005268D268904702B080BD80B56F468AB085
:103964000091014600980191049105900021039172
:1039740003A906910422079200F00CF8024601986C
:1039840002920A4602990891099200F0DCF80AB002
:1039940080BDD4D480B56F46B2B003920491079031
:1039A4001E911F92079805902090802805D3FFE769
:1039B4000598B0F5006F08D302E0012008900FE0ED
:1039C4000598B0F5803F06D302E00220089006E097
:1039D4000420089002E003200890FFE7FFE7FFE7D8
:1039E4000898013801460291032804D80299DFE8B7
:1039F40001F03A3D4145039908AA2C9241F60D7015
:103A0400C0F600002D901592169007AB2E9343F24A
:103A1400AB52C0F600022F92179318921B911BA968
:103A24003091319019911A90159916980F91109020
:103A3400179918981191129019991A981391149032
:103A44006846032202604FF6D401C0F6000109A8BB
:103A540001900FAB00F090F801984FF6EC01C0F61E
:103A64000001FEF7DFF9039860B9C4E70398012861
:103A740021D8C0E7039802282ED8BCE7039803286E
:103A840042D8B8E70499219107980870FFE7039B8F
:103A9400049A08982B9000211C911D901C981D9944
:103AA4004FF6880CC0F6000CEE46CEF800C0FFF7C7
:103AB4000FFF32B080BD04992291481C23900798CF
:103AC4008009062262F35F1008709DF81C00022230
:103AD40062F39F104870DAE704992491481C2590FA
:103AE400881C26900798000B0E2262F31F100870A2
:103AF40007988009022262F39F1048709DF81C0009
:103B040062F39F108870C2E704992791481C28909B
:103B1400881C2990C81C2A900798800C1E2262F3E6
:103B2400DF0008700798000B022262F39F104870B0
:103B34000798800962F39F1088709DF81C0062F357
:103B44009F10C870A3E780B56F468AB000920A46FA
:103B540000990192024601980392049005910690FF
:103B640007910890099101F0AAF8002007F81D0CAC
:103B740017F81D0C0AB080BD80B56F4698B001934C
:103B8400029203910490B8680590129113921493D1
:103B94001590824206D3FFE70298059901318842C5
:103BA4000AD9FFE74FF2C470C0F600001690012056
:103BB40017900020A0BB16E005980499019A029B77
:103BC400DDF80CC0C1F800C04B604FF23803C0F6FA
:103BD4000003D3F800C05B68C1F810C04B618A6071
:103BE400C86018B080BD4FF2C470C0F600000690E3
:103BF400012007904FF23800C0F6000001684068C9
:103C04000A910B904FF2CC70C0F60000089000208F
:103C140009904FF61801C0F6000106A8FEF702F954
:103C24004FF2C471C0F600010CA80090012200F00C
:103C340007F800984FF62801C0F60001FEF7F2F8E5
:103C440080B56F468CB00192029103900A910B9259
:103C5400012A16D8FFE703990198029A0A6048607E
:103C64004FF23800C0F60000026840680A614861FB
:103C74004FF2CC70C0F6000088600020C8600CB021
:103C840080BD4FF2C471C0F6000104A80090012267
:103C9400FFF7D6FF00984FF62801C0F60001FEF7A3
:103CA400C1F880B56F4682B0019000F002F802B00E
:103CB40080BD80B56F4682B00A4601904FF6FC0184
:103CC400C0F60001FFF7EDF902B080BD81B00090AD
:103CD40001B0704781B08DF801009DF80100C00764
:103CE40020B9FFE701208DF8020003E000208DF8E1
:103CF4000200FFE79DF80100C00720B9FFE79DF827
:103D0400020001B07047FAE780B56F4686B00290B2
:103D1400006800F00BF803900398019001A8049048
:103D24000421059100F0CBFF06B080BD82B0019064
:103D34000090009802B0704780B56F4640F20100D1
:103D4400C0F2000000F001F880BD81B0ADF80200BF
:103D5400ADF80000BDF8000001B0704781B00090DC
:103D640001B07047704780B56F4684B001900390EE
:103D740000F00AF827F8060CB81F00F00EF80198B6
:103D840000F021F804B080BD80B56F4640F2030016
:103D9400C0F20000FFF7D9FF80BD80B56F4686B042
:103DA4000290008800F017F827F80A0C37F80A0C7C
:103DB40027F8120CA7F1120004900221059100F0DB
:103DC4007EFF06B080BD80B56F4682B00190FFF7DC
:103DD4009BFF02B080BD81B0ADF80200ADF80000D9
:103DE400BDF8000001B0704782B0019300924360B7
:103DF400026002B0704780B56F4694B0039004919E
:103E040003A9109143F64710C0F6000011900E91DB
:103E14000F900E990F980C910D9068460122029212
:103E240002604FF61411C0F6000106A801900CAB15
:103E3400FFF7A2FE0199A7F13900FFF732FFFFF760
:103E440049FF02994FF61C10C0F60000129013911E
:103E540000F035FF14B080BD80B56F4682B001908C
:103E6400FFF79BFFFFF77EFF0AF0BEF902B080BDAB
:103E740080B56F4686B003900268436801A800903D
:103E8400FFF7B2FF009804900821059100F017FF96
:103E940006B080BD80B56F4686B002900068FFF71B
:103EA40045FF03900398019001A804900421059113
:103EB40000F005FF06B080BD81B001B0704780B549
:103EC4006F464FF67C10C0F6000000F000F880B595
:103ED4006F46FFF74BFB80B56F4694B00193029297
:103EE400039104900B900C910D920E90904217D870
:103EF400FFE70399049A02980591069006980F909B
:103F0400801A1090119111441291139109910A9001
:103F140009990A98079108900798089914B080BDE8
:103F2400019A02990498FDF7A7FF80B56F4682B005
:103F34000090019100F002F802B080BD80B56F4698
:103F440088B001900291012007F8020C07F8030CD5
:103F540001A8059002A806900598069900F026F895
:103F640007F80D0C17F80D1C481CC0B2022802D328
:103F7400FFE706E0FEDE002007F8020C019803903C
:103F840005E0002007F8030C02980390FFE717F8F8
:103F9400030CC00728B9FFE717F8020CC00720B9C3
:103FA40000E0F9E7039808B080BDFBE780B56F46F1
:103FB40084B0019002910198029900F002F804B0D3
:103FC40080BD85B003900491006800900968019158
:103FD400884205D3FFE700980199884208D003E09E
:103FE400FF208DF80B0008E001208DF80B0003E0A2
:103FF40000208DF80B00FFE7FFE79DF80B0005B0EC
:104004007047D4D480B56F46A2B0029007F8761CEE
:104014001D9017F8760C03900399DFE801F004096A
:10402400131A2500FEDE0298007807F8750C22E0CA
:104034004FF62420C0F600001E9001201F9000209F
:10404400D0BB1CE002980078BFF35F8F07F8750CB3
:1040540011E04FF6C020C0F600002090012021900E
:104064000020002855D137E002980078BFF35F8F15
:1040740007F8750CFFE717F8750C22B080BD4FF6F2
:104084002420C0F600000590012006904FF238006D
:10409400C0F600000168406809910A904FF68C1040
:1040A400C0F600000790002008904FF67C21C0F66F
:1040B400000105A8FDF7B6FE4FF69811C0F6000101
:1040C40017A80190012200F034F801984FF6EC1182
:1040D400C0F60001FDF7A6FE4FF6C020C0F60000B2
:1040E4000B9001200C904FF23800C0F600000168DC
:1040F40040680F9110904FF68C10C0F600000D90A0
:1041040000200E904FF6C821C0F600010BA8FDF761
:1041140089FE4FF69811C0F6000111A80090012203
:1041240000F007F800984FF6EC11C0F60001FDF717
:1041340079FE80B56F468CB00192029103900A918A
:104144000B92012A16D8FFE703990198029A0A6094
:1041540048604FF23800C0F60000026840680A6107
:1041640048614FF68C10C0F6000088600020C860DB
:104174000CB080BD4FF69811C0F6000104A8009061
:104184000122FFF7D6FF00984FF6EC11C0F60001AC
:10419400FDF748FE80B56F46A4B0039007F8791C7C
:1041A4001F9017F8790C04900499DFE801F00408D3
:1041B40012182300FEDE03980068069020E04FF6F4
:1041C4002420C0F600002090012021900020B8BBDC
:1041D40019E003980068BFF35F8F069010E04FF674
:1041E400C020C0F600002290012023900020002867
:1041F40053D135E003980068BFF35F8F0690FFE763
:10420400069824B080BD4FF62420C0F60000079025
:10421400012008904FF23800C0F6000001684068A1
:104224000B910C904FF68C10C0F600000990002002
:104234000A904FF67C21C0F6000107A8FDF7F2FDB5
:104244004FF69811C0F6000119A802900122FFF759
:1042540070FF02984FF6EC11C0F60001FDF7E2FD85
:104264004FF6C020C0F600000D9001200E904FF2D2
:104274003800C0F6000001684068119112904FF6B2
:104284008C10C0F600000F90002010904FF6C8214B
:10429400C0F600010DA8FDF7C5FD4FF69811C0F654
:1042A400000113A801900122FFF743FF01984FF684
:1042B400EC11C0F60001FDF7B5FDD4D480B56F460E
:1042C400A4B00291039007F8792C1E901F9117F85F
:1042D400790C04900499DFE801F004080E18230017
:1042E400FEDE02980399086022E002980399BFF366
:1042F4005F8F08601CE04FF60430C0F60000209089
:1043040001202190002090BB14E04FF65030C0F6FD
:1043140000002290012023900020002854D136E090
:1043240002980399BFF35F8F0860BFF35F8FFFE7C5
:1043340024B080BD4FF60430C0F600000690012082
:1043440007904FF23800C0F60000016840680A91F7
:104354000B904FF68C10C0F60000089000200990D6
:104364004FF60C31C0F6000106A8FDF75BFD4FF6D1
:104374009811C0F6000118A801900122FFF7D9FE98
:1043840001984FF6EC11C0F60001FDF74BFD4FF616
:104394005030C0F600000C9001200D904FF2380010
:1043A400C0F6000001684068109111904FF68C101F
:1043B400C0F600000E9000200F904FF65831C0F662
:1043C40000010CA8FDF72EFD4FF69811C0F6000170
:1043D40012A800900122FFF7ACFE00984FF6EC11F2
:1043E400C0F60001FDF71EFD80B56F46A4B0029033
:1043F4000B46039307F8792C1E9007F8111C17F845
:10440400790C04900499DFE801F004080E182300E5
:10441400FEDE03980299087022E003980299BFF324
:104424005F8F08701CE04FF60430C0F60000209047
:1044340001202190002090BB14E04FF65030C0F6CC
:1044440000002290012023900020002854D136E05F
:1044540003980299BFF35F8F0870BFF35F8FFFE784
:1044640024B080BD4FF60430C0F600000690012051
:1044740007904FF23800C0F60000016840680A91C6
:104484000B904FF68C10C0F60000089000200990A5
:104494004FF60C31C0F6000106A8FDF7C3FC4FF639
:1044A4009811C0F6000118A801900122FFF741FEFF
:1044B40001984FF6EC11C0F60001FDF7B3FC4FF67E
:1044C4005030C0F600000C9001200D904FF23800DF
:1044D400C0F6000001684068109111904FF68C10EE
:1044E400C0F600000E9000200F904FF65831C0F631
:1044F40000010CA8FDF796FC4FF69811C0F60001D8
:1045040012A800900122FFF714FE00984FF6EC1158
:10451400C0F60001FDF786FC82B000900191B1FA6B
:1045240081F0400902B070478CB000910190069070
:1045340007910890002030B9FFE70198009909918C
:104544000844049003E000980A900490FFE701985F
:104554000B90059004980599029103900298039991
:104564000CB0704780B56F4684B000920A4601468D
:104574000098019102920390FFF7ADFC04B080BD56
:1045840080B56F4684B0009002900078C00768B987
:10459400FFE7009901200870002007F8090C17F8BC
:1045A400091CA7F10A0000F003F8FFE704B080BD7E
:1045B40080B56F4686B0049007F8011C07F8091C03
:1045C400A7F109010191012102910199029A00F0D8
:1045D40002F806B080BD80B56F4684B001910292A6
:1045E40003900198029900F002F804B080BD80B5F0
:1045F4006F4684B0019100900290039100F006F898
:104604000099019A00F008F804B080BD40F200005F
:10461400C2F200001830704780B56F4688B0019030
:1046240002910392069000F02FF830B9FFE744F2AC
:10463400B560C0F60000049005E044F2F360C0F6F3
:1046440000000490FFE702980399FFF765FF58B94B
:10465400FFE70198049B0299039A98470146009149
:1046640007900028EFD001E008B080BD009A0298BE
:1046740003990592059A4FF6D033C0F60003FFF76D
:1046840071FF02900391DEE780B56F4682B001901E
:104694001430002107F8051C17F8051C00F06FF80A
:1046A40000F003000238B0FA80F0400902B080BD87
:1046B40080B56F468AB003920291049006900791E8
:1046C40008920C30022107F8111C17F8111C00F095
:1046D40056F80299039A034604980993EE464FF458
:1046E400806CCEF800C000F074F80AB080BD80B5CC
:1046F4006F4690B005920A460599069202460698BE
:1047040007920A920B900C91FFF706FF08BBFFE794
:1047140007981030002107F81A1C17F81A1C00F02B
:104724002EF80146079802910D910C30022107F8EA
:10473400191C17F8191C00F022F8014602980A46C1
:1047440003920E9100F026F8014604910F9018B1DF
:1047540005E0002008900FE0002008900CE0039B87
:10476400059A06990798DDF810C0EE46CEF800C009
:1047740000F02FF80890FFE7089810B080BD80B5CE
:104784006F4684B0019007F8051C0390FFF702FD03
:1047940004B080BD85B000910190039004918842DB
:1047A40003D8FFE7019830B10BE001990098C043AA
:1047B400084402900AE0009940F2FF30401A029047
:1047C40004E00098C0F580600290FFE7029805B00D
:1047D400704780B56F46A4B0049302920A460192D2
:1047E40084460298CDF80CC0B968CDF81CC0089274
:1047F40009900A93FFF799FB049B014605910B90DE
:104804001844B0F5806F13D8FFE7059A0199049B0B
:104814000398DDF808C02291CDF88CC040681A9046
:104824001B9318441391149015920AF0D3F928E0BD
:1048340003980199DDF808C0049BC3F580620092D7
:104844000C922091CDF884C04068189019931844B4
:104854001091119012920AF0BDF9DDF808C0019987
:10486400009B059A03981E91CDF87CC01C911D9362
:1048740019444068D21A0D910E900F920AF0AAF9C9
:10488400FFE7059A049903980C3016911792114486
:104894006FF39F21012207F8752C17F8752C00F08F
:1048A40003F8059824B080BD80B56F4684B00090AD
:1048B400019107F8052C0390FFF700FD04B080BDBB
:1048C40080B56F468EB001920A4601990292024663
:1048D400029803920A920B900C91FFF725FE059023
:1048E4000691FFE705A800F07BF80790079810B938
:1048F400FFE70EB080BD0398079909780A46009235
:1049040007F8011C4078072804D3FFE70098000645
:1049140020B115E00098000688B33AE00398407887
:10492400073840F0800007F8130C17F8131CA7F1A0
:10493400250000F0A8F80399002048708870D1E79A
:10494400009807F8120C17F8121CA7F1250000F0C4
:104954009AF8039841780131417040788628C1D192
:10496400FFE7FF2007F8110C17F8111CA7F1250029
:1049740000F089F80399002048708870B2E7039921
:104984004A78887802F0070301229A40104388701D
:1049940009E0009807F8150C17F8151CA7F1250075
:1049A40000F071F8FFE703984178013141704078D5
:1049B400072897D1FFE70398807800283FF492AF47
:1049C400FFE7039880788DF824009DF82410A7F160
:1049D400250000F058F8039900204870887081E79A
:1049E4009AB0009001210191029103910990002055
:1049F40098B9FFE70098011D0A91416806910B9050
:104A040006A90C9100680D9006990E91401AB0FA0F
:104A140080F040098DF8170009E0009840680F9075
:104A24001090B0FA80F040098DF81700FFE79DF868
:104A34001700C00730B9FFE700980068079000200E
:104A440070B902E0002004901AE00099081D11904A
:104A5400129008681390013008900898086008E0E4
:104A64000099081D14901590486816900138486004
:104A7400FFE707A817900798189019900490FFE78C
:104A840004981AB0704780B56F4686B0049007F852
:104A9400011C07F8091CA7F10901019101210291E8
:104AA4000199029AFFF797FD06B080BD80B56F4665
:104AB40086B002900490407878B9FFE70020019016
:104AC40007F8090C17F8091C03A800F02FF802993D
:104AD40001984870887006B080BD0298407868B923
:104AE400FFE702984078073840F0800007F80A0C86
:104AF40017F80A1C03A800F019F8DFE702984078B9
:104B04000628EED8FFE702984178807801F0070282
:104B14004FF0FF319140084300F07F0007F80B0C81
:104B240017F80B1C03A800F001F8C7E780B56F461F
:104B340086B0049007F8011C07F8091CA7F10901C5
:104B44000191012102910199029AFFF744FD06B0F7
:104B540080BD80B56F4682B00090FFF711FD02B0B2
:104B640080BD80B56F4684B0009001910292FFF73A
:104B7400A7FE04B080BD80B56F4682B00090FFF7F9
:104B840095FF02B080BD80B56F468AB0FEF78FFEF8
:104B940007F8010C17F8010C0146019107F8020C03
:104BA400002007F81D0C17F81D1C40F27400C2F217
:104BB400000000F02EF8E0B9FFE7002007F8030C2E
:104BC40017F8032C40F27400C2F20000012100F037
:104BD4002FF8019800F0010040F27501C2F20001C3
:104BE400087040F27600C2F20000FFF7B2FF0AB08C
:104BF40080BD4FF60041C0F6000103A800900122D9
:104C0400FFF797FA00984FF66C41C0F60001FDF7E4
:104C140009F980B56F4684B0019007F8051C03902C
:104C2400FFF7F0F9C0B2002818BF012004B080BD1E
:104C340080B56F4684B0019007F8061C07F8052C70
:104C44000390FFF7D1FB04B080BD80B56F4682B0FE
:104C540040F27600C2F20000FFF78DFF002107F852
:104C6400031C17F8032C40F27400C2F20000FFF793
:104C7400DFFF40F27500C2F20000007807F8020C72
:104C840007F8010CFEF718FE02B080BD80B56F4630
:104C940082B00A4601460091019240F27600C2F2C7
:104CA4000000FFF75EFF02B080BD80B56F46FFF7DE
:104CB4006AFF80BD80B56F46FFF7C7FF80BD80B532
:104CC4006F4682B000900191FFF7E0FF02B080BD13
:104CD40080B56F4684B0019100900393029200F076
:104CE40002F804B080BD80B56F468AB0019100908F
:104CF40003930292012007F8020C07F8030C68469C
:104D0400079002A808900798089900F02BF807F874
:104D14000D0C17F80D1C481CC0B2022802D3FFE783
:104D240008E0FEDE002007F8020C009801990591C6
:104D3400049007E0002007F8030C029803990591FA
:104D44000490FFE717F8030CC00728B9FFE717F82A
:104D5400020CC00728B900E0F9E7049805990AB0E5
:104D640080BDFAE780B56F4684B001900291019846
:104D7400029900F002F804B080BD87B00590069156
:104D840002680092406801900B680293496803919D
:104D9400D21A884109D3FFE70199039A0098029B2C
:104DA40058405140084340B103E0FF208DF8130000
:104DB40008E001208DF8130003E000208DF81300B3
:104DC400FFE7FFE79DF8130007B0704780B56F4613
:104DD40084B00191009003930292FFF779FF04B02D
:104DE40080BD80B56F4682B000900191006809686B
:104DF40000F002F802B080BD80B56F4682B000902A
:104E0400019100F004F880F0010002B080BD85B08B
:104E1400009101900390049100680968884201D0D0
:104E2400FFE706E00099019840684968884205D088
:104E340003E000208DF80B0013E0FAE700990198D5
:104E440080688968884201D0FFE7F2E700990198F9
:104E5400C068C968401AB0FA80F040098DF80B00A8
:104E6400FFE79DF80B0005B0704782B000900190F9
:104E7400B0FA80F0400902B0704782B0019000900F
:104E8400009802B0704785B000900390049018B960
:104E9400FFE70020019004E000980290029801903E
:104EA400FFE7019805B0704780B56F46A4B0039042
:104EB40007F8791C1F9017F8790C04900499DFE81F
:104EC40001F0040812182300FEDE0398006806901F
:104ED40020E04FF61450C0F60000209001202190ED
:104EE4000020B8BB19E003980068BFF35F8F0690F9
:104EF40010E04FF6B050C0F600002290012023903D
:104F04000020002853D135E003980068BFF35F8F79
:104F14000690FFE7069824B080BD4FF61450C0F603
:104F240000000790012008904FF23800C0F60000FE
:104F3400016840680B910C904FF67C40C0F600006D
:104F4400099000200A904FF66C51C0F6000107A8A2
:104F5400FCF768FF4FF68841C0F6000119A80290DB
:104F6400012200F034F802984FF6DC41C0F600014B
:104F7400FCF758FF4FF6B050C0F600000D9001202A
:104F84000E904FF23800C0F600000168406811919D
:104F940012904FF67C40C0F600000F900020109055
:104FA4004FF6B851C0F600010DA8FCF73BFF4FF6D1
:104FB4008841C0F6000113A80190012200F007F80F
:104FC40001984FF6DC41C0F60001FCF72BFF80B5D9
:104FD4006F468CB00192029103900A910B92012AC0
:104FE40016D8FFE703990198029A0A6048604FF2C5
:104FF4003800C0F60000026840680A6148614FF654
:105004007C40C0F6000088600020C8600CB080BD01
:105014004FF68841C0F6000104A800900122FFF772
:10502400D6FF00984FF6DC41C0F60001FCF7FAFE0B
:1050340080B56F46A2B0029007F8761C1D9017F851
:10504400760C03900399DFE801F00409131A250094
:10505400FEDE0298007807F8750C22E04FF6145033
:10506400C0F600001E9001201F900020D0BB1CE061
:1050740002980078BFF35F8F07F8750C11E04FF6C4
:10508400B050C0F60000209001202190002000289C
:1050940055D137E002980078BFF35F8F07F8750C9D
:1050A400FFE717F8750C22B080BD4FF61450C0F618
:1050B40000000590012006904FF23800C0F6000071
:1050C4000168406809910A904FF67C40C0F60000E0
:1050D4000790002008904FF66C51C0F6000105A817
:1050E400FCF7A0FE4FF68841C0F6000117A8019016
:1050F4000122FFF76CFF01984FF6DC41C0F6000176
:10510400FCF790FE4FF6B050C0F600000B90012063
:105114000C904FF23800C0F60000016840680F910F
:1051240010904FF67C40C0F600000D9000200E90C9
:105134004FF6B851C0F600010BA8FCF773FE4FF60A
:105144008841C0F6000111A800900122FFF73FFF3B
:1051540000984FF6DC41C0F60001FCF763FED4D49E
:1051640080B56F46A4B002900B46039307F8792CE0
:105174001E9007F8111C17F8790C04900499DFE8C5
:1051840001F004080E182300FEDE0398029908704B
:1051940022E003980299BFF35F8F08701CE04FF67A
:1051A400F450C0F60000209001202190002090BB14
:1051B40014E04FF64060C0F60000229001202390D6
:1051C4000020002854D136E003980299BFF35F8F82
:1051D4000870BFF35F8FFFE724B080BD4FF6F45033
:1051E400C0F600000690012007904FF23800C0F688
:1051F4000000016840680A910B904FF67C40C0F6AD
:1052040000000890002009904FF6FC51C0F6000100
:1052140006A8FCF707FE4FF68841C0F6000118A85F
:1052240001900122FFF7D3FE01984FF6DC41C0F64E
:105234000001FCF7F7FD4FF64060C0F600000C904B
:1052440001200D904FF23800C0F60000016840685C
:10525400109111904FF67C40C0F600000E90002093
:105264000F904FF64861C0F600010CA8FCF7DAFD78
:105274004FF68841C0F6000112A800900122FFF702
:10528400A6FE00984FF6DC41C0F60001FCF7CAFD0B
:1052940080B56F4696B09C4601920A4601990290E9
:1052A400BB688E46CDF80CE09646CDF810E0CDF8FC
:1052B40014C006930F9007F8162C07F8151C1190CC
:1052C400FFF7F2FD0990FFE709980C900C9905A8E7
:1052D40000F02BF80A900B910A98012813D1FFE7EC
:1052E400049B0298DDF80CC00B9A12920999139151
:1052F4001490EE46CEF800C000F044F80D900E91E4
:105304000D9828B109E0099808900120079008E059
:105314000D990E980791089003E00E981590099046
:10532400D2E70798089916B080BD80B56F4688B05B
:10533400009101460098029105910690FFF795FDB2
:10534400029A0146009812681170FFF79CFD00F064
:1053540074FA01460298019107914068006800F0D0
:105364008DFA01990C3000F092FA029840680068B6
:1053740000F094FA0490012003900398049908B073
:1053840080BDD4D480B56F46B2B09C4608920991D2
:105394000A90BB6807F896CC07F8953C29902A91A7
:1053A4002B9217F8960C0B900B99DFE801F004137D
:1053B40025374900FEDE17F8950C014607910028B1
:1053C40056D0FFE70798022866D0FFE7079804281D
:1053D40078D047E017F8950C01460691002800F0B4
:1053E4009580FFE70698022800F0A680FFE706985C
:1053F400042800F0B98035E017F8950C01460591B2
:10540400002800F0C980FFE70598022800F0DA8040
:10541400FFE70598042800F0EB8023E017F8950CCB
:1054240001460491002800F0FB80FFE7049802285D
:1054340000F00E81FFE70498042800F0218111E0B8
:1054440017F8950C01460391002800F03181FFE71D
:105454000398022800F04481FFE70398042800F031
:105464005781FFE717F8950C012800F077817FE159
:1054740009980A9BDDF820C053E8001F014503D1B9
:1054840043E800C2002AF7D1081AB0FA80F04009B4
:105494000F918DF840002DE009980A9BDDF820C09B
:1054A40053E8001F014503D143E800C2002AF7D1A5
:1054B400081AB0FA80F04009BFF35F8F0F918DF89E
:1054C400400017E009980A9BDDF820C0BFF35F8F06
:1054D40053E8001F014503D143E800C2002AF7D175
:1054E400081AB0FA80F04009BFF35F8F0F918DF86E
:1054F4004000FFE70F9802902C909DF8400007F8B9
:10550400110CC007002840F0208119E109980A9B7A
:10551400DDF820C0BFF35F8F53E8001F014503D1BE
:1055240043E800C2002AF7D1081AB0FA80F0400913
:105534000F918DF84000DDE709980A9BDDF820C043
:10554400BFF35F8F53E8001F014503D143E800C256
:10555400002AF7D1081AB0FA80F04009BFF35F8F30
:105564000F918DF84000C5E709980A9BDDF820C02B
:10557400BFF35F8F53E8001F014503D143E800C226
:10558400002AF7D1081AB0FA80F04009BFF35F8F00
:105594000F918DF84000ADE709980A9BDDF820C013
:1055A40053E8001F014503D143E800C2002AF7D1A4
:1055B400081AB0FA80F04009BFF35F8F0F918DF89D
:1055C400400097E709980A9BDDF820C053E8001FC4
:1055D400014503D143E800C2002AF7D1081AB0FA02
:1055E40080F04009BFF35F8F0F918DF8400081E791
:1055F40009980A9BDDF820C0BFF35F8F53E8001FB2
:10560400014503D143E800C2002AF7D1081AB0FAD1
:1056140080F04009BFF35F8F0F918DF8400069E778
:1056240009980A9BDDF820C0BFF35F8F53E8001F81
:10563400014503D143E800C2002AF7D1081AB0FAA1
:1056440080F04009BFF35F8F0F918DF8400051E760
:1056540009980A9BDDF820C0BFF35F8F53E8001F51
:10566400014503D143E800C2002AF7D1081AB0FA71
:1056740080F04009BFF35F8F0F918DF8400039E748
:1056840009980A9BDDF820C0BFF35F8F53E8001F21
:10569400014503D143E800C2002AF7D1081AB0FA41
:1056A40080F04009BFF35F8F0F918DF8400021E730
:1056B40009980A9BDDF820C0BFF35F8F53E8001FF1
:1056C400014503D143E800C2002AF7D1081AB0FA11
:1056D40080F04009BFF35F8F0F918DF8400009E718
:1056E40009980A9BDDF820C0BFF35F8F53E8001FC1
:1056F400014503D143E800C2002AF7D1081AB0FAE1
:1057040080F04009BFF35F8F0F918DF84000F1E600
:1057140009980A9BDDF820C0BFF35F8F53E8001F90
:10572400014503D143E800C2002AF7D1081AB0FAB0
:1057340080F04009BFF35F8F0F918DF84000D9E6E8
:1057440002980E9001200D9004E002980E90002023
:105754000D90FFE70D980E9932B080BD4FF6D860DA
:10576400C0F600002E9001202F90002040BB0AE0DC
:105774004FF63070C0F600003090012031900020C8
:1057840000284AD12CE04FF6D860C0F600001790EC
:10579400012018904FF23800C0F6000001684068FC
:1057A4001B911C904FF67C40C0F60000199000201D
:1057B4001A904FF6E061C0F6000117A8FCF732FB1F
:1057C4004FF68841C0F600011DA801900122FFF7A1
:1057D400FEFB01984FF6DC41C0F60001FCF722FB0A
:1057E4004FF63070C0F600001190012012904FF275
:1057F4003800C0F6000001684068159116904FF615
:105804007C40C0F600001390002014904FF63871CD
:10581400C0F6000111A8FCF705FB4FF68841C0F65D
:10582400000123A800900122FFF7D1FB00984FF656
:10583400DC41C0F60001FCF7F5FA80B56F4686B08E
:105844000190012007F8060C019818B9FFE7002021
:1058540002900AE001980590002107F8061C0390C5
:10586400039800F020F80290FFE717F8060CC00731
:1058740018B9FFE7029806B080BDFBE784B000903A
:105884006846019000980290039004B0704783B07A
:10589400009001910290016003B0704782B00090C3
:1058A400019002B0704780B56F4684B002900390B7
:1058B40000F002F804B080BD80B56F4682B001905C
:1058C400FFF7DBFA0090009802B080BD83B002902D
:1058D400019001980090009803B0704798B00F9120
:1058E40010908DF84B2014901591169017909DF8F8
:1058F4004B0011901199DFE801F004224262840008
:10590400FEDE10980F990D9100680E90FFE70E9936
:10591400109BDDF834C053E8000F084503D143E879
:1059240000C2002AF7D10C90411AB1FA81F1490959
:1059340001290E90EBD1FFE70C98139083E01098A7
:105944000F990A91BFF35F8F00680B90FFE70B99E3
:10595400109BDDF828C053E8000F084503D143E845
:1059640000C2002AF7D10990411AB1FA81F149091C
:1059740001290B90EBD1FFE70998139063E010988D
:105984000F99079100680890FFE70899109BDDF8CC
:105994001CC053E8000F084503D143E800C2002AA5
:1059A400F7D10690411AB1FA81F149090129089009
:1059B400EBD1FFE70698BFF35F8F139043E0109895
:1059C4000F990491BFF35F8F00680590FFE7059975
:1059D400109BDDF810C053E8000F084503D143E8DD
:1059E40000C2002AF7D10390411AB1FA81F14909A2
:1059F40001290590EBD1FFE70398BFF35F8F139064
:105A040021E010980F990191BFF35F8F0068029015
:105A1400FFE70299109BDDF804C053E8000F084526
:105A240003D143E800C2002AF7D10090411AB1FA29
:105A340081F1490901290290EBD1FFE70098BFF3F6
:105A44005F8F1390FFE7139818B0704782B00090EF
:105A54000098019002B0704782B0009000980190C5
:105A640002B0704780B56F4686B00190012007F8F8
:105A7400060C019818B9FFE7002002900AE001988B
:105A84000590002107F8061C0390039800F00BF81A
:105A94000290FFE717F8060CC00718B9FFE7029851
:105AA40006B080BDFBE780B56F4684B002900390DA
:105AB400FFF702FF04B080BD82B08DF801008DF8BD
:105AC400021001208DF805009DF80100C00738B9C7
